:020000040800F2
:10000000D84300209D0100087B2B0008C12900086F
:10001000792B0008FD070008354B000800000000A0
:10002000000000000000000000000000593200083D
:100030005108000800000000A52D000885320008C6
:10004000B7010008B7010008B7010008B7010008B0
:10005000B7010008B701000853080008B7010008FD
:10006000B7010008B7010008B7010008B701000890
:10007000B7010008B7010008B7010008B701000880
:10008000B7010008B7010008B7010008B701000870
:10009000B7010008B7010008B7010008B701000860
:1000A000B7010008B7010008B7010008B701000850
:1000B000B7010008B7010008B7010008B701000840
:1000C000B7010008B7010008B7010008B701000830
:1000D000B7010008B7010008B7010008B701000820
:1000E000B7010008B7010008B7010008B701000810
:1000F000B7010008B7010008B7010008B701000800
:10010000B7010008B7010008B7010008B7010008EF
:10011000B7010008B7010008B7010008B7010008DF
:10012000B7010008B7010008B7010008B7010008CF
:10013000B7010008B7010008B7010008B7010008BF
:10014000B7010008B7010008B7010008FD2C00083E
:10015000B7010008B7010008B7010008B70100089F
:10016000B7010008B7010008B7010008B70100088F
:10017000B7010008B7010008B7010008000000003F
:10018000B7010008B7010008DFF80CD000F08AFAC8
:10019000004800475D6B0008D843002006488047B0
:1001A00006480047FEE7FEE7FEE7FEE7FEE7FEE75C
:1001B000FEE7FEE7FEE7FEE73533000889010008A9
:1001C0002DE9F05F0546002092469B46884606468C
:1001D000814640241BE0284641464746224600F01F
:1001E0008EF853465A46C01A914110D3114618460C
:1001F000224600F019F82D1A67EB01084F462246F7
:100200000120002100F010F817EB00094E41201EDC
:10021000A4F10104DFDC484631462A46434600F09B
:1002200000B830BCBDE8C09F202A04DB203A00FAA9
:1002300002F1002070479140C2F1200320FA03F33D
:1002400019439040704710B5431A934209D283185E
:10025000881803E010F8011D03F8011D521EF9D2A1
:1002600010BD40EA01039B0703D009E008C9121F33
:1002700008C0042AFAD203E011F8013B00F8013B60
:10028000521EF9D210BDD2B201E000F8012B491E76
:10029000FBD270470022F6E710B513460A46044623
:1002A0001946FFF7F0FF204610BD421C10F8011B55
:1002B0000029FBD1801A704730B504460020034660
:1002C00000E05B1C934203D2E05CCD5C401BF8D0A5
:1002D00030BD30B50B46014600202022012409E044
:1002E00021FA02F59D4205D303FA02F5491B04FAEF
:1002F00002F52844151EA2F10102F1DC30BD202ACE
:1003000004DB203A21FA02F00021704721FA02F3BF
:10031000D040C2F1200291400843194670472DE9B0
:10032000FE4F804681EA0300C00F0C46009021F08A
:10033000004123F00045B8EB0200A94105D2404638
:10034000214690461C460B46024623F000401043CF
:1003500047D0270DC7F30A00C3F30A510290401A91
:10036000019040286BDAC3F3130040F4801B00981F
:10037000924620B10023D2EB030A63EB0B0B0198EA
:100380005946C0F140025046FFF74EFF06460D4663
:1003900050465946019A00F097F910EB0800614168
:1003A000002487EA115284EAE7731A4340D0009A86
:1003B00062B3019A012A4FEA075215DC001B61EB78
:1003C00002014FF0004202EA0752CDE90042001C50
:1003D00041F5801132462B4600F097F903B000F04A
:1003E00045B840462146F9E7001B61EB0201001CBD
:1003F00041F5801300185B412018A2F5001747EB68
:10040000030140EAD570B6196D4111E06D084FEA5D
:10041000360645EAC0754FEA0752001B61EB020140
:10042000001C41F5801149084FEA30000019514184
:1004300032462B4603B000F01CB800F057B90098C4
:10044000012240000023D0EB020263EBE07300982E
:1004500021464FEAE074B8EB000061EB0401E9E7E4
:1004600083F000435BE781F0004158E730BCBDE812
:10047000C08F30BCBDE8C04FFFF7DFBF2DE9FE4F96
:1004800081EA030404F0004421F0004100944FF09D
:10049000000B23F0004350EA01045ED052EA03044B
:1004A0005BD0C3F30A54C1F30A552C44A4F2F334CD
:1004B0000194A0FB0254C1F3130141F48011C3F372
:1004C000130343F4801301FB024400FB034E840A30
:1004D000970A44EA815447EA8357A4FB07680295C8
:1004E0008D0A05FB07854FEA932C04FB0C54270566
:1004F000029D4FEA065847EA1637B5EB08056EEB42
:10050000070C870E920E47EA811742EA8312A7FB77
:100510000201B6EB0B0164EB00042B0D43EA0C3334
:100520005E1844EB1C50DA465146E7FB0201C5F366
:1005300013044FEA0B3343EA14534FEA0432019C8D
:1005400043EA0603A4F10C040294009CCDE900B434
:1005500000F0DBF803B000F003B800200146F9E733
:1005600030BCBDE8C08F2DE9F04D81EA030404F0F2
:10057000004B21F0004514464FF0000A23F00041E3
:1005800050EA050220D054EA01021DD0C5F30A57F3
:100590000246C5F31303C1F31300C1F30A5640F436
:1005A000801543F48013A7EB0608101BD64608F20B
:1005B000FD3873EB050002D308F1010801E0921841
:1005C0005B41B8F1000F03DA00200146BDE8F08D71
:1005D00000204FF48011064684460EE0171B73EB93
:1005E000050705D3121B63EB050306434CEA010C18
:1005F00049084FEA300092185B4150EA0107EDD1FB
:1006000052EA030012D082EA040083EA050108439B
:1006100005D0101BAB4106D20122002306E00022C8
:100620004FF0004302E06FF0010253101AEB060096
:100630004CEB085110EB0A0041EB0B01BDE8F04D0B
:1006400000F054B8C1F30A52C1F3130140F2FF3372
:1006500041F480119A4202DA00200146704740F2CC
:1006600033439A42A2F2334202DC5242FFF747BEC2
:10067000FFF7DABD30B5041E71F1000404DB4FF062
:100680000044404264EB0101141E73F1000405DBD9
:100690001C464FF00043524263EB0403994208BFEB
:1006A000904230BD064C074D06E0E06840F0010383
:1006B00094E8070098471034AC42F6D3FFF768FD82
:1006C00070CD000890CD0008202A06DBCB17203A19
:1006D00041FA02F043EAE07306E041FA02F3D04047
:1006E000C2F12002914008431946704710B5141E0C
:1006F00073F1000408DA401C41F1000192185B41DB
:100700001A4301D120F0010010BD2DE9F04D9246B1
:100710009B4611B1B1FA81F202E0B0FA80F22032C8
:100720009046FFF781FD04460F4640EA0A0041EA81
:100730000B0153465A46084313D0114653EA0100B1
:1007400019D0C8F140025046FFF7D9FD05460E46C4
:10075000504659464246FFF767FD084305D0012041
:1007600004E020463946BDE8F08D0020054346EA06
:10077000E0762C4337430A986305E40AA0EB0800AF
:100780000022FD0A44EA47540A3002D500200146FF
:10079000E9E7010510196941DDE9084500196941DA
:1007A000BDE8F04DA2E770B58C1810F8015B15F0AC
:1007B000070301D110F8013B2A1106D110F8012BD3
:1007C00003E010F8016B01F8016B5B1EF9D12B07F8
:1007D00005D40023521E0DD401F8013BFAE710F8AE
:1007E000013BCB1A921C03E013F8015B01F8015B9B
:1007F000521EF9D5A142D8D3002070BDFEE70020DB
:10080000704700207047000030B50E498878401CC2
:1008100088708878042800D3FEE70B480B4BD0F88B
:10082000182200200D78145C05F0030503EB8515F4
:100830002C54401CC0B24028F4D30878401C0870E7
:10084000002030BD32000020200A00206C03002070
:10085000704710B5012000F01BF8BDE810400BF008
:100860008FBDFEE770B5054600F012F94FEA0004AF
:1008700000F00EF9001BA842FAD370BDB0F5007F5E
:1008800002D1024800F0B4BA70470000C40400204E
:10089000044910B50A68024202D00860FFF7EEFF73
:1008A00010BD0000140401402DE9F84FDFF898B1A5
:1008B00000234FF0010C4FF0030A4FF00F090BF12A
:1008C000040EB9E00CFA03F4224070D04D68022DFA
:1008D00001D0122D0ED1DD0800EB8508D8F820508C
:1008E0005E07F70E09FA07F6B5430E69BE402E43C0
:1008F000C8F8206007685E0091F804800AFA06F5DF
:1009000008F00308AF4308FA06F848EA0708C0F8F9
:1009100000804F68012F05D0022F03D0112F01D086
:10092000122F13D1D0F80880CF6828EA0508B74005
:1009300047EA08078760D0F804800F7928EA04089E
:10094000C7F300179F4047EA08074760D1F80480C3
:100950006FEA0807BF0706D1C76AA743C8F3C004F8
:100960009C403C43C462C468AC438D68B540254399
:10097000C5604C68E4005ED5344C256E45F0010539
:100980002566246E23F0030504F001040094304C26
:100990002E19B4689D072F0F09FA07F5AC43B0F183
:1009A000904F05D02B4DA84204D101251CE042E018
:1009B000002519E0284DA84201D1022514E0274D59
:1009C000A84201D103250FE0254DA84201D10425FD
:1009D0000AE0244DA84201D1052505E0224DA84298
:1009E00001D1062500E00725BD402543B560DBF8B1
:1009F00000405D464E689443F60300D514432C60D6
:100A0000DEF8004075464E689443B60300D51443A3
:100A10002C600D4D08352C684E689443F60200D5C5
:100A200014432C60084D0C352C684E689443B60274
:100A300000D514432C605B1C0A6832FA03F57FF47E
:100A400041AF00F013B80000000401400010024064
:100A5000000001400004004800080048000C004865
:100A600000100048001400480018004818BCBDE8F9
:100A7000E08F0069084000D00120704742694A4079
:100A8000426170470AB1816170478162704700001E
:100A900001480068704700006401002090F8412080
:100AA000202A24D190F84020012A20D0012280F869
:100AB0004020242280F841200268136823F00103BB
:100AC00013600268136823F480531360026813688C
:100AD0000B43136001680A6842F001020A6020219A
:100AE00080F84110002180F840100846704702202D
:100AF0007047000070B5040004D094F84100002550
:100B000010B106E0012070BD84F84050204600F08E
:100B10004DF8242084F841002068016821F001018B
:100B200001606068216820F0706008612068816859
:100B300021F400418160E0680128A06807D040F4FA
:100B4000044021688860E068022803D006E040F491
:100B50000040F6E721684FF4006048602068416873
:100B6000114A114341602068C16821F40041C1600D
:100B7000D4E904010843A16940EA01202168C86062
:100B8000D4E907010843216808602068016841F042
:100B9000010101606564202084F84100256384F828
:100BA0004250002070BD00000080000200B50068C7
:100BB0000E4987B0884217D14FF4C07000901220C0
:100BC00001900120029003200390042004906946C4
:100BD0000748FFF769FE0748816D41F40011816500
:100BE000806D00F40010059007B000BD0054004077
:100BF000000400480010024002480168491C0160DE
:100C0000704700006401002010B5032000F092F846
:100C1000002000F005F800F017F8002010BD0000DB
:100C200010B5044607484FF47A710068B0FBF1F044
:100C300001F0E3FD00222146501E00F05BF8002089
:100C400010BD0000680100201E4808B5016E41F08B
:100C500001010166016E01F001010091816D41F019
:100C600080518165806D00F080500090032000F07D
:100C700061F8002211466FF00B0000F03BF80022F3
:100C800011466FF00A0000F035F8002211466FF0AF
:100C9000090000F02FF800221146501F00F02AF83A
:100CA00000221146101F00F025F800221146901E68
:100CB00000F020F80022BDE808401146501E00F068
:100CC00019B800000010024000F01F0201219140FD
:100CD0004009800000F1E020C0F88011704700F06A
:100CE0001F02012191404009800000F1E020C0F87E
:100CF00000117047F0B40E4B1B680C46C3F302237F
:100D0000C3F10705042D00D90425191D072901D2B7
:100D1000002300E0DB1E012606FA05F1491E2140F2
:100D200099409E40761E16403143F0BC01F026BF2C
:100D30000CED00E0064900F0070208684FF6FF03DB
:100D4000184040EA0220034A104308607047000040
:100D50000CED00E00000FA05BFF34F8F0548016875
:100D6000054A01F4E06111430160BFF34F8F00BFFA
:100D7000FDE700000CED00E00400FA050168012227
:100D8000C0F8C423886B40F40030886300207047AB
:100D900001220168C0F8C023002280F8B8238869C6
:100DA00040F000608861486D024A104348650020A9
:100DB000704700000300001030B5ADF5097D0C460A
:100DC00005464FF4097209496846FFF73CFAD5F821
:100DD000C403012806D1FC2C04DA002C02D1684699
:100DE00003F076F90DF5097D30BD0000200A0020E2
:100DF0002DE9F04106460468FFF74AFE0546D4F89F
:100E00000408800742D5A06B40F48020A0634FF413
:100E10007A7706E0FFF73CFE401BB84201D9FF217C
:100E200031E0A06BC007F5D06420FFF71BFDA06B7D
:100E3000C00703D0FE213046FFF7BEFFA06B20F4B1
:100E40008020A063A06B40F40020A0636420FFF723
:100E500009FDA06B800701D4FD2110E0A06B20F4F8
:100E60000020A063A06B40F48010A0636420FFF713
:100E7000F9FCA06B400701D5FB2100E0FC213046C6
:100E8000FFF79AFF00213046FFF796FFBDE8F0819B
:100E900070470068416200207047F0B50068002389
:100EA000446A31B1856A4FF4827604EB15444D1ED5
:100EB0000AE044EA024181620FE006EB8307C7596A
:100EC0005B1C04EB1744DBB2AB42F6DB4FF48073E0
:100ED00003EB810144EA024242500020F0BDD0F809
:100EE000C80302F075BFC1EBC10200EB8202D0F86B
:100EF000C803926C02F0E2BEC1EBC10200EB8202B9
:100F0000D0F8C803D2F8EC2102F02DBFD0F8C80306
:100F100002F060BF10B504460A460B0601F07F00E0
:100F2000C0EBC00104EB810101D53C3101E001F5CA
:100F3000F0710870D009487094F88403012809D032
:100F4000012084F88403206803F05CFA002084F810
:100F5000840310BD022010BD70B50A460446090680
:100F600002F07F0005D5C0EBC00104EB81013C31EC
:100F700005E0C2EBC20104EB810101F5F07100252F
:100F80008D700870D009487094F88403012809D046
:100F9000012084F88403206803F0D1FB84F8845393
:100FA000002070BD022070BD70B504460D460E06CF
:100FB00001F07F00C0EBC00104EB810101D53C31A1
:100FC00001E001F5F0710870E80948708A60CB70A3
:100FD00094F88403012809D0012084F88403206850
:100FE00003F082F9002084F8840370BD022070BDF4
:100FF00070B504460E4601F07F00C0EBC00104EB63
:1010000081010025C1F8EC21C1E97D3581F8E1516C
:1010100081F8E00194F8840301F5F07101280DD006
:10102000012084F884037006227C206808D003F035
:10103000E7FB00BF84F88453002070BD022070BD20
:1010400003F0D8FAF6E770B50D460446090605F038
:101050007F0005D5C0EBC00104EB81013C3105E008
:10106000C5EBC50104EB810101F5F07101228A7025
:101070000870E809487094F88403012807D084F8C0
:101080008423206803F08DFB680602D007E002206D
:1010900070BD217C04F56272206803F039FB0020EA
:1010A00084F8840370BD70B504460E4601F07F00DD
:1010B000C0EBC00104EB810100258A64C1E914354D
:1010C000012281F83D2001F83C0F94F884030128A7
:1010D0000BD084F884237006227C206807D003F0AC
:1010E0008FFB84F88453002070BD022070BD03F094
:1010F00081FAF6E72DE9F84F044600680026054618
:1011000003F0A2FC00287DD1206803F0C6FC002873
:1011100078D0206803F0C1FC800704D520684169BD
:1011200001F002014161206803F0B7FC010304F5FE
:1011300062704FF001094FF0000B00907DD52068E0
:1011400003F08DFC074680E0F8077CD0F1B2206800
:1011500003F09BFC8046C0075FD005EB4610C0F84B
:10116000089B296CFE4A914230D1D5F8081B09042E
:1011700024D42169012911D1C6EBC60104EB8101F8
:10118000D0F8100BD1F8E821C0F31200101AC1F802
:10119000F801D1F8EC011044C1F8EC01F1B220469D
:1011A000FFF7AAFE2069012808D13EB9D4F8F4015E
:1011B00020B920680121009A03F0AAFAD5F8080B9B
:1011C00048F220010843C5F8080B26E021690129EF
:1011D00011D1C6EBC60104EB8102D0F8100BD2F896
:1011E000E811C0F31200081AC2F8F801D2F8EC01B5
:1011F0000844C2F8EC01F1B22046FFF77DFE2069F9
:10120000012800E048E208D13EB9D4F8F40120B941
:1012100020680121009A03F07BFA5FEA087007D585
:10122000204600F037FB05EB46110820C1F8080BFB
:101230005FEAC86007D5102001E009E003E005EB94
:101240004611C1F8080B7F08761C002F7FF47CAF95
:10125000206803F022FC40034FF0400A5DD520686F
:1012600003F0F6FB0746002655E0F80751D0F1B22F
:10127000206803F0FBFB8046C00724D0D5F8341863
:1012800009FA06F08143C5F8341805EB4610C0F89A
:1012900008992069012807D1C6EBC60004EB80003D
:1012A000D0E9112111448164F1B22046FFF71BFE01
:1012B0002069012807D136B9206D20B920680121A5
:1012C000009A03F025FA5FEA087004D505EB461191
:1012D0000820C1F808095FEAC86004D505EB46118B
:1012E0001020C1F808095FEA486003D505EB4611F4
:1012F000C1F808A95FEA887004D505EB4611022001
:10130000C1F808095FEA086003D53146204601F0BC
:10131000FBFC7F08761C002FA7D1206803F0BDFBE3
:10132000002811DAD5F8040820F00100C5F80408F7
:1013300094F8B80301283AD0204600F079FA2068E2
:10134000416901F000414161206803F0A6FB0005FE
:101350000BD5D5F80808C00702D0204600F0B6FA31
:101360002068416901F400614161206803F095FB48
:1013700000010AD52068416901F00061416194F8DB
:10138000B803D8B1204600F0A1FA206803F085FB2D
:10139000C00460D5D5F8040820F00100C5F80408A1
:1013A0000021206803F03EFB0020FF211BE084F8B1
:1013B000B8B300212046FFF76BFDC0E784F8B8936F
:1013C0002068406D0121C0F38300C4F8BC032046AF
:1013D000FFF75EFDD9E700BF05EB4012C2F8081920
:1013E000C2F8081B401C62688242F5D84FF0FF30FB
:1013F000C5F81808D5F81C0840F00110C5F81C08FD
:10140000206B60B1D5F8840840F00B00C5F8840863
:10141000D5F8440840F00B00C5F844080BE0D5F8B7
:10142000140840F00B00C5F81408D5F8100840F077
:101430000B00C5F81008D5F8000820F4FE60C5F8C8
:101440000008217C2068009A03F062F92068416955
:1014500001F480514161206803F01FFB800472D5C4
:10146000206802F081FF2068C16821F47051C160DA
:101470000320C4F814A0E06000F022FD39493A4A84
:101480000144914204D22068C16841F4705151E096
:101490003649374A0144914204D22068C16841F478
:1014A000605147E03349344A0144914204D22068F4
:1014B000C16841F450513DE03049314A0144914204
:1014C00004D22068C16841F4405133E02D492E4ACE
:1014D0000144914204D22068C16841F4305129E0AE
:1014E0002A492B4A0144914204D22068C16841F440
:1014F00020511FE02749284A0144914204D2206824
:10150000C16841F4105115E02449254A0144914233
:1015100004D22068C16841F400510BE02149014424
:10152000214881422068C16802D241F4E05101E0C3
:1015300041F4C051C160204600F06CF92068416957
:1015400001F400514161206803F0A7FAC0065DD59F
:101550002068816921F010018161D5F8208025E0A3
:101560000A31544F405327FF00350C00401E1BFF2B
:1015700040420F0000DC0BFF804F1200808CF9FE10
:1015800020D6130060B6E5FE60E3160000D3CEFE61
:1015900040771B00C05BB3FEC091210000CA91FEE2
:1015A00020753800E05459FEE09C410008F00F001F
:1015B000C0EBC00004EB8007C8F3434007F5F077A9
:1015C000022802D0062812D01BE047F6F07118EA74
:1015D000010F16D0C8F30A1290462846F96803F0A6
:1015E00060FAF8684044F860B869404408E00822AE
:1015F0002846009903F055FAB969C8F30A1008445F
:10160000B8612068816941F010018161206803F0B0
:1016100044FA000707D5204600F024F92068416904
:1016200001F008014161206803F037FAC00208D5D3
:10163000F1B2204600F035F82068416901F48011CC
:101640004161206803F029FA800208D5F1B22046F2
:1016500000F02BF82068416901F400114161206815
:1016600003F01BFA400007D52046FFF738FC20683E
:10167000416901F080414161206803F00EFA4007A2
:101680000AD520684568680702D52046FFF73EFC6A
:10169000206841682943416000F000B818BCBDE8EB
:1016A000E08FD0F8C80302F0E1BBD0F8C80302F025
:1016B000DFBB2DE9F0418AB004004FF0000504D0F3
:1016C00094F88503002620B108E001200AB0BDE8A7
:1016D000F08184F88463204600F05CF8032084F8ED
:1016E0008503206802F080FF04F11001282288465B
:1016F0006846FEF7A8FD94E80F0002F04FFE0021B7
:10170000206803F0DEF901270DE0C5EBC50004EB0E
:10171000800080F83D7000F83C5FC580C670866030
:10172000C6606D1C46616068A842EED80020C0EB20
:10173000C00104EB810181F8E16181F8E001A1F8C9
:10174000420081F8E361C1F8E861C1F8EC61401C36
:10175000C1F8F4610F28EAD3282241466846FEF713
:1017600072FD94E80F0002F09DFE84F8386084F862
:101770008573606A012802D12046FFF709FBA06A41
:10178000012802D12046FFF7F9FA206802F07DFE19
:1017900000209BE710B5006886B0B0F1A04F34D1AF
:1017A0004FF4C050009002200190002002900320CE
:1017B00003900A20049069464FF09040FFF774F8B8
:1017C000134CE06C40F48050E064E06C00F4805016
:1017D0000590A06DC0000ED4A06D40F08050A065B3
:1017E000A06D00F08050059000F0BAF8A06D20F0D8
:1017F0008050A06501E000F0B3F8002211464320BC
:10180000FFF778FA4320FFF76AFA06B010BD000030
:101810000010024010B504460121D0F8C80302F0C0
:101820007DFBD4F8C803BDE8104002F046BB0000C1
:1018300010B504460068D0F8001E21F00101C0F880
:10184000001E206A30B10648016821F006010160DF
:1018500001F022FDD4F8C803BDE8104002F04CBBF3
:1018600010ED00E0D0F8C80302F04CBB10B5044600
:1018700090F8840301280BD0012084F8840384F8B5
:101880003810206803F033F9002084F8840310BD79
:10189000022010BDD0F8C82300F56271104602F096
:1018A00050BB10B5044690F8840301280CD00120E9
:1018B00084F88403206802F0DCFD206803F09CF8C3
:1018C000002084F8840310BD022010BD10B504462A
:1018D0000068D0F8001E41F00101C0F8001ED4F8E5
:1018E000C80302F07BFB206A002804D0024801688C
:1018F00041F00601016010BD10ED00E01549B0F5A2
:10190000007F0868C0F3412009D0022805D008688C
:1019100020F4C06040F48060086000207047012817
:10192000FBD0086820F4C06040F4007008600A48EA
:101930000A4A0068B0FBF2F03222504300E0401E39
:1019400010B14A695205FAD448694005E5D503202B
:1019500070470000007000406801002040420F0006
:101960000248416841F48061416070470070004066
:101970000248006800F4C06070470000007000403A
:101980000248016841F00401016070470010024004
:101990002DE9F84F044600270088E54D3E46010535
:1019A00004F1200B1DD5606E78B1B0F5800F11D019
:1019B000B0F5000F04D0B0F5400F22D001270FE0A2
:1019C000E86840F48030E8601BE00021201D01F051
:1019D000FDF903E00021584601F0ACFA070010D0F1
:1019E0003E462088C00426D5A06EC0B1B0F1807FED
:1019F0001AD0B0F1007F0DD0B0F1407F19D001278F
:101A000018E0D5F88800616E20F440000843C5F85E
:101A10008800E6E7E86840F48030E86009E00021EB
:101A2000201D01F0D3F903E00021584601F082FAAD
:101A30000746F7B13E46206880033AD5A86D4FF0BF
:101A40000008C00009D4A86D40F08050A865A86DBA
:101A50004FF0010800F080500090DFF8D8A2DAF8CB
:101A6000001041F48071CAF80010FFF711F88146A8
:101A700010E0D5F88800A16E20F040700843C5F84A
:101A80008800D8E7FFF704F8A0EB0900022801D985
:101A9000032705E0DAF80000C005F3D5002F7CD05D
:101AA0004FEA0706B8F1000F03D0A86D20F0805070
:101AB000A8652078C00707D0D5F88800A16B20F072
:101AC00003000843C5F888002078800707D5D5F8BB
:101AD0008800E16B20F00C000843C5F888002078EE
:101AE000400707D5D5F88800216C20F03000084366
:101AF000C5F888002078000707D5D5F88800616C04
:101B000020F0C0000843C5F888002078C00607D53B
:101B1000D5F88800A16C20F440700843C5F888000F
:101B20002078800607D5D5F88800E16C20F4406065
:101B30000843C5F888002088800507D5D5F88800B7
:101B4000E16D20F440200843C5F888002088400556
:101B500007D5D5F88800216E20F440100843C5F859
:101B600088002078400607D5D5F88800216D20F43C
:101B700040500843C5F888002078000607D5D5F8FE
:101B80008800616D20F440400843C5F88800208833
:101B9000C00509D5D5F8880000E01CE0A16D20F44F
:101BA00040300843C5F8880020884FF00067800463
:101BB0004FF080684FD5D5F88800E16E20F0406086
:101BC0000843C5F88800E06EB8423CD1E86840F4AC
:101BD0008010E8603FE0D5F8900010F4407015D018
:101BE000D4F88410814211D0D5F89000D5F8901027
:101BF00020F4407041F48031C5F89010D5F8901071
:101C000021F48031C5F89010C5F89000C00710D0BD
:101C1000FEF73EFF074641F2883906E0FEF738FF3F
:101C2000C11B494501D903263CE7D5F89000800740
:101C3000F4D5D5F89000D4F8841020F4407008430F
:101C4000C5F890002EE7404505D10121201D01F087
:101C5000BDF800B106462068000317D5D5F8880006
:101C6000216F20F040600843C5F88800206FB8421B
:101C700004D1E86840F48010E86007E0404505D1F1
:101C80000121201D01F0A2F800B1064620684003A2
:101C900017D5D5F88800616F20F040600843C5F87B
:101CA0008800606FB84204D1E86840F48010E860B2
:101CB00007E0404505D10121201D01F087F800B162
:101CC0000646208840041AD5D5F88800A16F20F078
:101CD00040500843C5F88800A06FB0F1805F03D082
:101CE000B0F1005F05D00AE00221201D01F06EF87E
:101CF00003E00221584601F01DF900B10646208894
:101D0000000407D5D5F88800E16F20F08040084333
:101D1000C5F888002068C00307D555F8880FD4F8A7
:101D2000801020F0004008432860304600F004B8DE
:101D3000001002400070004018BCBDE8E08F0000B9
:101D40002DE9F047DFF8688105460E46D8F8000017
:101D500000F00700B0420CD2D8F8001021F00701C3
:101D60003143C8F80010D8F8000000F00700B04276
:101D700074D128784F4C800705D5A068A96820F059
:101D8000F0000843A0602878C00756D06868022891
:101D900018D0032819D02168D0B1490500295DDA8F
:101DA000A16821F003010143A160FEF771FE69689B
:101DB000074641F28830022912D003291ED08146FD
:101DC00049B335E021688903E8E721688901E5E73F
:101DD0008907E3E7FEF75CFEC11B494501D924E012
:101DE0008146A068C0F381000228F3D125E000BF3E
:101DF000FEF74EFEC11B494501D916E08146A06899
:101E0000C0F381000328F3D117E000BFFEF740FEC6
:101E1000C11B494509D8A06810F00C0FF6D10CE0A1
:101E2000FEF736FEC11B494502D90320BDE8F08705
:101E3000A068C0F381000128F2D1D8F80010404614
:101E400001F00701B1420BD9016821F007013143CC
:101E50000160006800F00700B04201D00120E5E712
:101E60002878400705D5A068E96820F4E0600843B9
:101E7000A0602878000706D5A068296920F4605082
:101E800040EAC100A06000F051F8A168F02292FA87
:101E9000A2F201F0F001B2FA82F2D140064A515C9E
:101EA000C840064908600020FEF7BAFE0020BDE7E2
:101EB000002002400010024014CD000868010020FC
:101EC000014800687047000068010020084809497F
:101ED000006889684FF4E06292FAA2F201F4E061CE
:101EE000B2FA82F2D140044A515CC8407047000007
:101EF000680100200010024054CD0008084809493C
:101F0000006889684FF4605292FAA2F201F46051BD
:101F1000B2FA82F2D140044A515CC84070470000D6
:101F2000680100200010024054CD000870B53B4904
:101F3000002318468A683A4C12F00C0F4FEA6405E9
:101F400014D08A68C2F38102032A04D1CA6802F05D
:101F50000302012A0AD08A68C2F38102012A21D031
:101F60008A68C2F38102022A1ED01EE00A681207A4
:101F700006D4D1F894204FF4706302F4706203E049
:101F80000A68F02302F0F00293FAA3F3B3FA83F3A2
:101F9000DA40244B53F822308A6812F00C0F04D137
:101FA000184602E0204600E028468A68C2F3810213
:101FB000032A31D1C868CA6800F00300702696FA77
:101FC000A6F602F07002B6FA86F6F240521C4FF402
:101FD000FE46022804D0032805D0B3FBF2F004E04B
:101FE000B4FBF2F001E0B5FBF2F0CA6896FAA6F392
:101FF00002F4FE42B3FA83F3DA40C96850434FF06B
:10200000C06292FAA2F201F0C061B2FA82F2D1404B
:10201000491C4900B0FBF1F070BD00000010024007
:102020000024F40024CD00082DE9F843044600788C
:10203000FE4DC00663D5A86810F00C0F0AD0A06949
:102040000028286878D040F001002860FEF720FDC5
:1020500006465AE02868800702D5A06900286AD0A1
:10206000216A28684FF0F006000703D5286800F0C1
:10207000F00003E0D5F8940006EA1010814216D96A
:10208000084600F0F5FF002855D1286840F0080008
:1020900028602868216A20F0F000084328606868FA
:1020A000E16920F47F4040EA0120686015E028687B
:1020B00040F0080028602868216A20F0F0000843FA
:1020C00028606868E16920F47F4040EA0120686088
:1020D000206A00F0CDFF0028D6D1FFF727FFA968BE
:1020E00096FAA6F201F0F001B2FA82F2D140D04A9B
:1020F000515CC840CF4908600020FEF791FD2BE0FD
:10210000FEF7C6FC801B02287ED828688007F7D51A
:10211000286840F0080028602868216A20F0F00054
:10212000084328606868E16920F47F4040EA0120A4
:10213000686011E000E0B7E020F001002860FEF7E1
:10214000A7FC064605E000BFFEF7A2FC801B0228A4
:10215000DAD828688007F7D42078C00748D0A86864
:10216000C0F3810002281DD0A868C0F381000328B5
:1021700003D1E868C043800714D06068B0F5803FA1
:1021800017D0B0F5A02F286817D020F48030286031
:10219000286820F4802028606068E0B1FEF778FCB1
:1021A000064614E02868800322D5606800287BD0AA
:1021B0001EE0286840F48030EDE740F4802028607D
:1021C000F7E700BFFEF764FC801B64289CD82868F2
:1021D0008003F7D50CE0FEF75BFC064605E000BF88
:1021E000FEF756FC801B64288ED828688003F7D43D
:1021F0002078800748D5A8684FF0F857C0F38100D1
:10220000012816D0A86800E0AFE0C0F381000328E1
:1022100004D1E86800F0030002280AD0E068002832
:10222000286821D040F480702860FEF731FC064613
:102230000BE0286840050BD5E0680028B7D007E020
:10224000FEF726FC801B0228C0D828684005F7D579
:10225000686897FAA7F22169B2FA82F220F0F85082
:102260009140084368600FE020F480702860FEF71A
:102270000FFC064605E000BFFEF70AFC801B0228A3
:1022800073D828684005F7D42078000729D56069FD
:102290000028D5F8940013D040F00100C5F8940050
:1022A000FEF7F6FB064606E0FBE000BFFEF7F0FB9C
:1022B000801B022859D8D5F894008007F6D510E085
:1022C00020F00100C5F89400FEF7E2FB064604E0AA
:1022D000FEF7DEFB801B022847D8D5F89400800764
:1022E000F6D42078400763D5A86D0026C00008D436
:1022F000A86D40F08050A865A86D012600F08050C0
:1023000000904D480168C90511D40168804641F428
:1023100080710160FEF7BCFB074604E0FEF7B8FBE6
:10232000C01B022821D8D8F80000C005F6D5A06847
:10233000012815D00528D5F8900017D020F001000D
:10234000C5F89000D5F8900020F00400C5F8900082
:10235000A06841F28838C8B1FEF79AFB074610E042
:10236000D5F8900040F00100F0E75EE040F0040096
:10237000C5F89000F4E700BFFEF78AFBC11B41459A
:1023800053D8D5F890008007F6D50CE0FEF780FB17
:10239000074604E0FEF77CFBC11B414579D8D5F820
:1023A00090008007F6D41EB1A86D20F08050A8657B
:1023B000A06AC8B3A968C1F38101032972D00228B9
:1023C000286820F08070286011D02868000106D4A9
:1023D0002868800003D4E86820F00300E860E8681B
:1023E00016490840E860FEF753FB044654E0FEF748
:1023F0004FFB064605E000BFFEF74AFB801B0228A4
:1024000047D828688001F7D4206BE16A00011038B2
:102410000843616BA26B0902120941EA4241084379
:10242000A18F074A49080DE039E032E00010024070
:1024300014CD00086801002000700040FFFFEEFE90
:102440000000E0FF02EB4151084394F840104908B6
:10245000120102EB41610843E860286840F0807097
:102460002860E86840F08070E860FEF711FB0446E1
:1024700005E000BFFEF70CFB001B022809D8286806
:102480008001F7D50BE000BFFEF702FB001B02281E
:1024900002D90320BDE8F88328688001F4D4002025
:1024A000F8E7FFE70120F5E72DE9F041040005D04A
:1024B0000025A56294F85D0018B107E00120BDE891
:1024C000F08184F85C50204600F044F8022384F840
:1024D0005D302068016821F040010160E0684FF440
:1024E000E066B04201D9002101E04FF48051B0F51F
:1024F000706F02D0B04200D0A562276B012227B9CD
:10250000B04201D9236300E02263D4E901031843F8
:10251000D4E9043633431843238B03F40073184380
:10252000E3691843236A1843A36A184323681860B1
:10253000636B606AA66918430427E36807EA1646D6
:1025400033431843084321684860256684F85D20BA
:102550000020B4E700B500680E4987B0884217D163
:102560000D48016E41F480510166006E694600F429
:1025700080500590E0200090022001900020029001
:1025800003200390052004904FF09040FEF78CF953
:1025900007B000BD00300140001002402DE9F05F9F
:1025A000044690F85C0000260A9F994692460D4624
:1025B0004FF0010801280ED0012084F85C00FEF7DE
:1025C00067FA834694F85D00616801280CD0B1F584
:1025D000827F07D102E0022000F0FFB8A16809B9AC
:1025E000042801D00226F0E0002D79D0BAF1000FC6
:1025F000FBD0B9F1000FF8D094F85D00042802D0A8
:10260000052084F85D0000202066C4F840A0A4F8EE
:102610004690A4F84490A563A4F83E90A4F83C909A
:10262000E0642065E0684FF4E061884203D8B4F8C4
:102630004600012804D92068426822F4805203E051
:102640002068426842F48052426020680268520664
:1026500003D4026842F040020260E0688842606889
:102660003FD910B1E08F012832D1216835F8020B33
:10267000C860E08F401EE0872AE000BFB8F1000F7D
:102680000DD0E08F58B120688168890707D535F8EB
:10269000021BC160E08F401EE0874FF00008B4F8D5
:1026A000460068B120688168C90709D0C0682AF867
:1026B000020BB4F84600401EA4F846004FF0010893
:1026C000781C05D0FEF7E4F9A0EB0B00B84268D205
:1026D000E08F0028D2D1B4F846000028CED169E0BE
:1026E00072E010B1E08F01285DD1E08F012806D99A
:1026F000216835F8020BC860E08F801E05E0206875
:1027000015F8011B0173E08F401EE0874BE000BF0E
:10271000B8F1000F16D0E08FA0B12068816889075A
:1027200010D5E18F012905D935F8021BC160E08F72
:10273000801E04E015F8011B0173E08F401EE08746
:102740004FF00008B4F8460018B320688168C90744
:102750001FD0B4F84610012911D9C0682AF8020B1D
:10276000B4F84600801EA4F84600B4F846000128DC
:102770000DD82068416841F48051416007E0017B39
:102780000AF8011BB4F84600401EA4F846004FF0BA
:102790000108781C07D0FEF77BF9A0EB0B00B842CC
:1027A00001D3032611E0E08F0028B1D1B4F8460030
:1027B0000028ADD15A463946204600F097FC08B1B2
:1027C00020202066206E00B10126012084F85D00E3
:1027D000002084F85C003046FEE630BCBDE8C09FB7
:1027E0004FF0E0210428086903D020F004000861BC
:1027F000704740F00400FAE7704710B5401EB0F192
:10280000807F01D3012010BD4FF0E02460610F21D3
:10281000601700F0B3F90020A061072020610020BC
:1028200010BD10B5FFF7E8FF10BD10B5040003D0D0
:1028300094F8690010B107E0012010BD002084F871
:102840006800204600F026F8242084F869002068FB
:10285000016821F001010160204600F01FFE0128FF
:10286000EBD0606A10B1204600F086FD2068416818
:1028700021F4904141602068816821F02A01816043
:102880002068016841F0010101602046BDE8104068
:1028900000F0D6BD30B5194D046819480321022255
:1028A000012387B0AC420FD1C46D44F00104C4656C
:1028B000C06D00F0010005908DE80E000820CDE904
:1028C000031069460F4814E00F4DAC4213D1046E5B
:1028D00044F480440466006E00F4804005904FF498
:1028E000C0608DE80D000720CDE9031069464FF068
:1028F0009040FDF7D9FF07B030BD000000800040D8
:102900000010024000080048003801402DE9F8435B
:10291000044690F869001F4616460D4620284DD102
:10292000CDB1C6B194F86800012847D0012084F8E1
:1029300068004FF00008C4F86C80212084F869001A
:102940005034FEF7A5F824F8026B814624F852694A
:102950004FF4805618E00120BDE8F883B4F8520027
:10296000401EA4F852004B460022802120460097CA
:1029700000F0E0FEA0B9A068B04201D1206988B1A2
:1029800015F8010B21680885B4F852000028E5D13C
:102990004B46002240212046009700F0CBFE30B18C
:1029A0000320D9E735F8020BC0F30800EAE720203E
:1029B00084F8690084F868800020CDE70220CBE726
:1029C000FEE70000F0B5274887B0C16C41F0040174
:1029D000C164C16C01F004010591C16C41F00101B9
:1029E000C164C16C01F001010591C16C41F00201AB
:1029F000C164C06C4FF4897100F002008E0605902E
:102A000000223046FEF73EF8174F0022712138466B
:102A1000FEF738F80125154800240095CDE901049A
:102A200069463046FDF740FF4FF48D700090CDE9C8
:102A30000154694630460394FDF736FF712000903B
:102A4000CDE90154694638460394FDF72DFF002275
:102A500011460620FEF74EF90620FEF740F907B0B2
:102A6000F0BD0000001002400004004800001110FA
:102A70000E4810B50C4901600D494160002101224A
:102A8000C0E90212016141618161C1610162FEF729
:102A900031F800B1FEE700210448FDF7FFFF0028F0
:102AA00000D0FEE710BD0000005400409008002058
:102AB0005D3E3020104810B50E4901604FF4827120
:102AC000416000214FF4E062C0E902120122C0E936
:102AD0000412520282611822C0E9072107224162D2
:102AE000C0E90A1201634163FFF7DEFC002800D051
:102AF000FEE710BD00300140BC0900200C4810B5B5
:102B00000A4901604FF4E1314160C904816000214C
:102B10000C22C160C0E904128161C161016241629D
:102B2000FFF783FE002800D0FEE710BD003801400B
:102B30004C09002010B500220B490C4801F080F828
:102B40000B490A4801F077FA0A49084800F09AFE52
:102B5000064801F08AF8002804D0BDE81040034878
:102B600001F0B6BA10BD000000000020200A0020CD
:102B7000C000002058000020FEE770470907090E3A
:102B8000002806DA00F00F0000F1E02080F8141DA4
:102B9000704700F1E02080F8001470472DE9FF5FD6
:102BA000514E05460227F0789A4614468946002879
:102BB00073D0DFF83881012805D0022873D00320B4
:102BC00004B000F097B8294603A807F00FFA0446AE
:102BD000022803D0052C01D0062C7ED19DF80C00D4
:102BE00000287AD0B088002877D0C01DC108012005
:102BF000B246491E8EB229784FF0020B11B902205D
:102C0000761EB6B23A49002208448146314607F0A2
:102C100035FC80B3022C05D00020052C11D0062CE9
:102C200013D017E05DB10B2007F0EEF9012188F811
:102C3000001029780D200A4608F030FA0AE00A2030
:102C4000F2E788F800000B2002E088F800000A2074
:102C500007F0DAF925483E3000F108010EC98DE889
:102C60000E004368494632463E3807F051FC8AF868
:102C700003B0022731E0FFE7BAF80400C01DC10825
:102C80001B4807F067FD50B1174B4FF400621B1D46
:102C900017490C2007F040FA1FE022E003E0022071
:102CA00007F0B2F919E007F0FDFB070015D10F4856
:102CB000523090F85410297098F8001001290ED065
:102CC0005FF0000289F8002010F8401F21700749CA
:102CD000027852315046FDF7B6FA384670E70122C5
:102CE000F0E705206CE70000760000205E1E002063
:102CF0001C1B002030BCBDE8C09F00000148FEF74F
:102D0000F9B90000C40400202DE9F84F0F46C1EBCB
:102D1000C70100EB810582460668D5E91401441A13
:102D2000686C3C35A04200D20446E01CC11700EBA1
:102D300091704FEAA00806EB471919E0441AA868F9
:102D4000A04200D20446E01CC11700EB91704FEA8C
:102D5000A0089AF810000090A3B2FAB23046E968D1
:102D600001F0D6FEE8682044E860A8692044A86124
:102D7000D9F8180981B2414505D9D5E90501814243
:102D800001D20028DAD1002C06DC0120D6F8341854
:102D9000B8408143C6F83418002000F000B818BCD1
:102DA000BDE8E08F704710B509F078FE00280CD020
:102DB00009F07AFE18B106F08FFA09F0A5FE05F0C9
:102DC0000FFCBDE8104009F09FBE10BD2DE9F04199
:102DD000544C05460F46E0680026820728684FF0ED
:102DE000700112D0E26802F0030282421BD1D0B11E
:102DF000E06891FAA1F100F07000B1FA81F1C840E9
:102E00006968401C88420ED122E0012804D00228C3
:102E100005D0032807D108E02268920701E0226864
:102E20005205002A07DB012678E02268920302D4CB
:102E300022685203F5E7E26891FAA1F122F07303E8
:102E40006A68B1FA81F1521E8A4013430343E3607A
:102E5000206820F080602060FDF71AFE804605E0C3
:102E6000FDF716FEA0EB080002284ED820680001EE
:102E7000F6D44FF4FE4017B390FAA0F0A968012FE2
:102E8000B0FA80F04FF0FF3201FA00F12AD0686901
:102E900002EB50004FF0C06292FAA2F2B2FA82F254
:102EA000904001432069204A10400143216120687D
:102EB00040F080602060FDF7EBFD074627E090FAC8
:102EC000A0F0A968B0FA80F08140E8684FF40032C1
:102ED00092FAA2F20009B2FA82F29040014320690C
:102EE000124AE1E7286902EB50004FF4C00292FA5F
:102EF000A2F2B2FA82F29040014320690C4AD3E771
:102F0000FDF7C6FDC01B022801D9032606E0206894
:102F10000001F5D52069A969084320613046BDE864
:102F2000F081000000100240FF80FFF9FF80FDFFEC
:102F3000FF809FFF2DE9F0414A4C06468846E06835
:102F40000025810730684FF0700312D0E16801F06E
:102F5000030181421BD1D0B1E06893FAA3F100F0E4
:102F60007000B1FA81F1C8407168401C88420ED1EE
:102F700022E0012804D0022805D0032807D108E068
:102F80002168890701E021684905002907DB01253F
:102F900064E02168890302D421684903F5E7E16808
:102FA00093FAA3F321F073027168B3FA83F3491E15
:102FB00099400A430243E260206820F0805020607C
:102FC000FDF766FD074604E0FDF762FDC01B022821
:102FD0003BD820688000F7D44FF4FE4191FAA1F16C
:102FE000B068B8F1000FB1FA81F100FA01F019D020
:102FF00031694FF0FF3202EB51014FF0C06292FA9B
:10300000A2F2B2FA82F2914008436169164A114075
:1030100008436061206840F080502060FDF738FD73
:10302000074614E0F1684FF4003292FAA2F209095F
:10303000B2FA82F29140084361690C4AE7E700BFA7
:10304000FDF726FDC01B022801D9032506E02068F4
:103050008000F5D560697169084360612846BDE864
:10306000F081000000100240FF80FFF9FF80FDFFAB
:10307000F8B51C4D06460024A86DC00002D5FEF729
:1030800077FC0DE0A86D40F08050A865A86D00F0B9
:1030900080500090FEF76CFCA96D21F08051A9656D
:1030A000B0F5007F04D0802E07D94FF003040AE06A
:1030B000802E08D9A02E01D804E001D1022402E01C
:1030C000702E00D101240848016821F00701214336
:1030D0000160006800F00700A04201D00120F8BDA7
:1030E0000020F8BD0010024000200240F8B515464F
:1030F0000E460B460092044600224FF4C05100F0E9
:1031000010F840B93346002280212046009500F097
:1031100058F8002804D0206E40F0200020660320DC
:10312000F8BD2DE9F8431D4617460E4604464FF4F8
:10313000C068DDF820903DE0464505D127B9007B09
:103140008DF800009DF80000681C33D02DB1FDF70C
:103150009FFCA0EB0900A8422CD32068416821F015
:10316000E00141606068B0F5827F0BD1A068B0F5E6
:10317000004F02D0B0F5806F04D12068016821F0C3
:1031800040010160A06AB0F5005F0AD120680168C3
:103190004DF6FF72114001602068016841F4005152
:1031A0000160012084F85D00002084F85C000320A9
:1031B000BDE8F883206881683140B942BCD1002065
:1031C000F6E72DE9F0411D4617460E460446DDF8A8
:1031D000188035E0681C33D02DB1FDF759FCA0EB09
:1031E0000800A8422CD32068416821F0E00141602A
:1031F0006068B0F5827F0BD1A068B0F5004F02D0B7
:10320000B0F5806F04D12068016821F040010160B1
:10321000A06AB0F5005F0AD1206801684DF6FF7220
:10322000114001602068016841F4005101600120F3
:1032300084F85D00002084F85C000320BDE8F08184
:103240002068806836EA000004D00020B842C1D16E
:103250000020F3E70120F9E770470000024900224F
:1032600008780A70704700005801002010B5FFF779
:10327000F5FF0349BDE81040A1F2454009F0D2BB7B
:10328000932F002010B5FDF7B7FCFFF7CAFABDE891
:10329000104003F083BB000010B5B8B0142022909A
:1032A000012000242490CDE92804B0202A902C94F9
:1032B00022A8FEF7B9FE00B1FEE70F20CDE93304E6
:1032C00035943694022133A83794FEF739FD00B1C6
:1032D000FEE742F26100149400904FF040600E94BB
:1032E0001B9013946846FEF753FB00B1FEE71048AD
:1032F00050F8901F21F0180101604FF40070FEF7A4
:10330000FDFA00B1FEE7FEF7DBFD4FF47A71B0FB8A
:10331000F1F0FFF772FA0420FFF762FAFEF730FBD4
:1033200000221146501EFDF7E5FC38B010BD00002C
:10333000001002400D48016841F4700101600C4822
:10334000016841F001010160002181600268094BC0
:103350001A4002608214C260026822F48022026075
:1033600081610249C00380390860704788ED00E040
:1033700000100240FFFFF6EA90F82410C90706D0BB
:1033800001684A68836A22F400321A434A6090F85E
:103390002410890706D501684A68C36A22F480327E
:1033A0001A434A6090F82410490706D501684A6814
:1033B000036B22F480221A434A6090F82410090714
:1033C00006D501684A68436B22F400421A434A60FA
:1033D00090F82410C90606D501688A68836B22F428
:1033E00080521A438A6090F82410890606D5016835
:1033F0008A68C36B22F400521A438A6090F8241042
:10340000490611D501684A68036C22F480121A43F8
:103410004A60016CB1F5801F06D101684A68436CAF
:1034200022F4C0021A434A6090F82410090606D517
:1034300001684A68806C22F4002202434A607047A7
:10344000F8B500260446C666FDF722FB054620684F
:1034500000686FF07E47000708D52B4600224FF426
:1034600000112046009700F065F960B920680068F7
:1034700040070AD52B4600224FF4800120460097D2
:1034800000F058F908B10320F8BD202084F8690045
:1034900084F86A0084F868600020F8BD2DE9F041E6
:1034A0000446016880682669D4F81CC03043666908
:1034B0001025002246EA0C063043924B0E68174650
:1034C000DFF844C206EA0C0606430E602068416835
:1034D000E66821F44051314341602168A069994276
:1034E00001D0266A30438E6826F4306606438E602B
:1034F000864E21688648B1420DD1D0F8880010F080
:10350000030006D001285AD0022856D0032859D1EA
:1035100057E0012556E07F4EB1420BD1D0F888002C
:1035200010F00C0047D0042849D0082845D00C28BA
:1035300048D146E0784EB1420BD1D0F8880010F067
:10354000300038D010283AD0202836D0302839D151
:1035500037E0724EB1420BD1D0F8880010F0C000B5
:1035600029D040282BD0802827D0C0282AD128E075
:103570006B4EB1420ED1D0F8880010F440701AD0D2
:10358000B0F5807F1BD0B0F5007F16D0B0F5407F3E
:1035900018D116E0994215D1D0F8880010F4406097
:1035A00009D0B0F5806F0AD0B0F5006F05D0B0F546
:1035B000406F07D105E0002504E0022502E0042564
:1035C00000E00825574E4FF40040994244D135B1F0
:1035D000022D07D0042D07D0082D10D107E0FEF7EB
:1035E00075FC03E0304602E0FEF7A0FC98B3626889
:1035F00002EB4201814202D8B0EB023F01D9012720
:103600007CE000266DB1022D0ED0042D13D0082DC4
:103610001AD00127444AA0F540719142EFD82168A1
:103620006BE0FEF753FC08E0500840490FE0002330
:10363000FCF7C6FDEEE7FEF779FC6268010E0302B7
:10364000500818187141F2E750084FF40001401873
:1036500046F10001EBE751E0E369834227D1092DF0
:103660001ED2DFE805F00508131D161D1D1D1900EB
:10367000FEF72CFC01E0FEF741FC4100D4F8040009
:1036800001EB5001B1FBF0F082B20AE0284960681A
:10369000F6E7FEF74BFCF0E74FF480316068EFE7A8
:1036A000012722F00F00C2F342010843B7E7092DBA
:1036B000A5D2DFE805F006090C05120505051C007A
:1036C0009DE7FEF703FC0AE0FEF718FC07E06068E0
:1036D00006EB5002B2FBF0F00EE0FEF727FC0146CD
:1036E000606801EB5001B1FBF0F080B297E76268CF
:1036F00000EB5200B0FBF2F080B2C8603846BDE883
:10370000F081000000800040F369FFEF00380140C5
:10371000001002400044004000480040004C0040BF
:10372000005000400024F400FFFC0F00000024F4CF
:103730000048E8012DE9F041984617460E46044638
:10374000069D1DE0681C1BD02DB1FDF7A1F9A0EB73
:103750000800A84214D92068016821F4D0710160E2
:103760002068816821F001018160202084F86900CF
:1037700084F86A00002084F868000320BDE8F08126
:103780002068C06936EA000004D00020B842D9D0D1
:103790000020F3E70120F9E7D0F81802002180F8B3
:1037A00050100846704770B50546D0F81842D5F855
:1037B0001C226178D268207890474023224601215C
:1037C000284600F06AFB002070BD10B50446812138
:1037D00000F064FA0121204600F060FAD4F81802E3
:1037E00050B1D4F81C0204F5067480688047206844
:1037F00000F074FD00202060002010BD10B5D0F84E
:103800001842E16C012908D1D0F81C0223786178B4
:10381000C268184690470020E064002010BD0000F8
:103820002921018000487047FC0000200A21018006
:10383000004870473401002070B50646002540233B
:103840000322812100F016FB402303220121304690
:1038500000F010FB542000F043FDC6F8180278B1C8
:103860000446002084F85000D6F81C0240688047C7
:10387000402322460121304600F00FFB284670BD50
:103880000125FBE702460220002902D00020C2F8F1
:103890001C12704710B5134690F8FC41D0F818225E
:1038A000032C09D192F8504034B9012482F85040D9
:1038B0000A46812100F09BFB002010BD70B500225C
:1038C0000D78D0F81832144615F0600526D0202D5A
:1038D0004CD14A78921E0A2A1CD2DFE802F0100866
:1038E0001B1B1B1B1B140C05887818643EE001226F
:1038F00003F1400131E04888000A586436E00122B3
:1039000003F1440129E00122DA648A79194600F0C2
:1039100053F82BE000F045F8022070BD4D78062DDD
:1039200004D00A2D1CD00B2D20D11DE04B88222560
:10393000B5EB132F07D1CA881D2A00D91D22D0F854
:103940001C120C6808E02125B5EB132F04D1CA889E
:10395000074C092A00D90922214600F047F805E062
:10396000012203F14801F8E788789864002070BDCF
:103970002801002010B5D0F814225268904700208A
:1039800010BD134610B50A46002100F086FA00204B
:1039900010BD134610B50A46002100F028FB002098
:1039A00010BD10B50446802100F0F8FA2046BDE8AD
:1039B0001040002100F0F2BA10B50323C0F808212E
:1039C000C0F8F431C0F80C2113460A46002100F07B
:1039D00064FA002010BD10B505210023C0F8F411D1
:1039E0001A46194600F059FA002010BD10B50223FE
:1039F0008261C0F8F431C26113460A46002100F02A
:103A0000F6FA002010BD10B504210023C0F8F4110F
:103A10001A46194600F0EBFA002010BD10B50A4610
:103A2000024903A000F0E9F8004810BD6C01002035
:103A3000437573746F6D2048494420436F6E666907
:103A40006700000012200880004870472000002016
:103A500010B50A46024903A000F0CFF8004810BD97
:103A60006C010020437573746F6D204849442049F0
:103A70006E74657266616365000000000420088052
:103A8000004870471C00002010B50A46024903A0F8
:103A900000F0B3F8004810BD6C01002053544D698C
:103AA00063726F656C656374726F6E696373000037
:103AB00010B50A46024903A000F09FF8004810BD67
:103AC0006C01002053543235523339313142204495
:103AD0004953434F204E464320496E6974696174CF
:103AE0006F72000010B50A46024903A000F085F885
:103AF000004810BD6C0100203030303030303030A4
:103B00003030314100000000F8B5044648880D46C9
:103B1000010A082954D2DFE801F05304091753536E
:103B20004951D4F81012207C0A6819E0207C022642
:103B30000028D4F8140205D0C16A684688470146B7
:103B400046704AE0816AF8E7C1B2062926D2DFE86A
:103B500001F0030A0F14191ED4F81012207C4A68D1
:103B60006946904718E0D4F81012207C8A68F7E77D
:103B7000D4F81012207CCA68F2E7D4F81012207C26
:103B80000A69EDE7D4F81012207C4A69E8E7D4F816
:103B90001012207C8A69E3E701461EE0C1B2D4F826
:103BA00014026A46836B20469847F5E7207C38B9B3
:103BB000D4F81402416B68468847EDE7207C20B1B9
:103BC00029462046FFF7EDFEF8BDD4F81402016B3C
:103BD00068468847014607204870BDF80000002865
:103BE000F2D0EA88002AEFD0824200D90246ADF82E
:103BF00000202046FFF7FAFEF8BD70B5002300282C
:103C00001DD00446002502E06D1CEDB2641C267830
:103C1000002EF9D1022404EB45041480CC545B1C23
:103C20000322CA5400245B1C06E0CA545B1CDAB2AF
:103C30008C54521CD3B2401C0278002AF5D170BDBE
:103C400010B580B1D0F8143213B10023C0F814328B
:103C500009B1C0F81012012180F8FC11027000F0C7
:103C6000C5F8002010BD022010BDD0F82002806AE7
:103C7000012801D0022070470020704710B50024B1
:103C8000D0F82002FDF768F930B1012801D00228F0
:103C900001D0022400E00124204610BD10B500240C
:103CA000D0F82002FDF736F930B1012801D0022802
:103CB00001D0022400E00124204610BD2DE9F0418E
:103CC0001746044641B1D4F8140242698AB394F805
:103CD000FC01032842D043E0D4F8F411002504F19C
:103CE0001400022933D1D0E902639E4207D9F31AA6
:103CF00083609AB239462046FFF74BFE12E04068D7
:103D0000B0FBF3F103FB1101A1B9984212D3D4F82F
:103D1000F81188420ED2002211462046FFF739FEE4
:103D2000C4F8F85100231A461946204600F0B5F8A9
:103D30000DE012E0D4F81402C16829B194F8FC0136
:103D4000032801D1204688472046FFF744FE94F817
:103D50000002012804D184F8005201E02046904777
:103D60000020BDE8F08170B51546044641B1D4F895
:103D7000140282693AB394F8FC01032824D025E0A8
:103D8000D4F8F41104F5827003291FD1D0E902217F
:103D90008A420BD9531A83600846834200D30346F4
:103DA0009AB229462046FFF7ECFD0FE0D4F8140242
:103DB000016929B194F8FC01032801D12046884704
:103DC0002046FFF720FE01E020469047002070BD0E
:103DD0000020704710B5012180F8FC11D0F81422A2
:103DE000017952689047002010BD000010B501789D
:103DF00039BB15490122C1F8C803C0F820124FF0A1
:103E0000A04008600620CA6048600020C1E90502A1
:103E1000C86108624862C1E90A020846FDF749FC28
:103E200008B1FCF71EFD80210748FDF732F840225B
:103E300000210548FDF731F8802201210248FDF7F5
:103E40002CF8002010BD0000C40400200A0601F078
:103E50007F01D0F82002C1EBC10100EB810002D547
:103E600090F83E00704790F8E201704700207047DC
:103E70000020704770B51D4613460024D0F820027C
:103E80002A46FDF791F830B1012801D0022801D06F
:103E9000022400E00124204670BD10B50024D0F8B3
:103EA0002002FDF7A5F830B1012801D0022801D089
:103EB000022400E00124204610BD70B50022044613
:103EC00040231146FFF7D6FF40252B4600228021D4
:103ED0002046C4F81051FFF7CDFF0120256284F879
:103EE000FC01D4F8180228B1D4F8140221794268F0
:103EF00020469047002070BD90F8FD1180F8FC111D
:103F00000020704710B590F8FC11032904D1D0F8B7
:103F10001412C96901B18847002010BD0174002046
:103F2000704710B50024D0F82002FDF79FFC30B197
:103F3000012801D0022801D0022400E001242046FB
:103F400010BD70B5044600F50270054600F05FF83C
:103F50000120C4F8F401B4F80E02C4F8F80194F892
:103F6000080210F01F010AD001290DD0022910D03B
:103F700000F08001204600F011F8002070BD2946B5
:103F8000204600F0AAF8F8E72946204600F08CF910
:103F9000F3E72946204600F019F9EEE710B50024B2
:103FA000D0F82002FDF74FF830B1012801D00228E7
:103FB00001D0022400E00124204610BD10B50024E9
:103FC000D0F82002FDF76DFC30B1012801D00228A5
:103FD00001D0022400E00124204610BD90F8FC111D
:103FE00080F8FD11042180F8FC110020704710B505
:103FF0000024D0F82002FDF756F830B1012801D096
:10400000022801D0022400E00124204610BD0A78D5
:1040100002704A7842708A78CB7802EB03224280A1
:104020000A794B7902EB032282808A79C97902EB03
:104030000121C18070470246002011B1C2F814125C
:1040400070470220704710B5D0F8142202241AB12C
:104050001268904700B90024204610BD70B50E4686
:104060001A4D897804462970012928D894F8FC0152
:10407000022802D0032822D105E099B10320616013
:1040800084F8FC0109E091B1606888420AD0C1B2AD
:104090002046FFF76FFC297861602046FFF7D3FFC9
:1040A00002280CD02046BDE87040FFF7ACBC0220CF
:1040B00084F8FC0120466160FFF75CFCF2E73146C2
:1040C0002046BDE87040FFF76CBC00003E010020B8
:1040D00010B5FFF773FF002010BD2DE9F041002659
:1040E0004B78012532460A2B43D2DFE803F03C58D7
:1040F0004251420805422A27FFF706FD63E00446C5
:104100008888C8B9C888B8B9887800F07F0794F85B
:10411000FC01032810D084F8FE7139462046FFF7D1
:1041200000FF2046FFF76FFC1FB1022084F8FC015E
:1041300049E084F8FC5146E020461AE0FFF78EFF84
:1041400041E0CB88012B14D190F8FC31022B02D036
:10415000032B0ED104E08260012200F1080114E07B
:104160000122011D11E090F8FC21022A04D0032A4B
:1041700002D0FFF716FC26E0C560D0F8041209B1A2
:104180000321C160022200F10C01FFF72FFC1AE0AD
:1041900004464888012816D1C4F804520BE00446AE
:1041A00090F8FC01022801D00328C5D148880128D5
:1041B00009D1C4F80422D4F814028268204690473A
:1041C0002046FFF720FC3046BDE8F08170B50D4673
:1041D0000446287800260979C0F34110012806D04A
:1041E0006878A0B301281FD003283FD107E0D4F896
:1041F00014022946826820469047002070BD94F83A
:10420000FC01022817D003282CD1688828B921B1D5
:10421000802902D02046FFF7C1FED4F814022946B7
:1042200082682046904713E094F8FC01022802D0EF
:10423000032817D103E0C9B180291BD116E0688893
:10424000A0B9480604D02046FFF718FDE5E703E0D3
:104250002046FFF7D8FB09E094F8FC01022807D0BC
:1042600003280BD029462046FFF79BFB304670BD44
:104270004806FBD02046FFF791FEF7E7080601F05D
:104280007F0004EB001501D5143501E005F58275BA
:104290002046FFF7DBFD00B10120286002222946FD
:1042A0002046FFF7A3FBE1E770B5054690F8FC0157
:1042B0000C4603280DD1207901280AD8D5F814021C
:1042C000826828469047E08830B92846FFF79BFB74
:1042D00002E02846FFF765FB002070BD7047000034
:1042E000004870476C04002030B54C781D4B01220B
:1042F0000D78AA40012CD0F81C4818D044EA02429C
:10430000C0F81C280A7800EB4210D0F8002B1204E9
:104310000BD4D0F8002B0C89C4F30A042243C978CB
:1043200043EA81410A43C0F8002B002030BD92B21D
:104330001443C0F81C480C7800EB4410D0F8002956
:104340001204F2D4D0F800290D89C5F30A052A43D6
:10435000C978890441EA84510A431A43C0F8002904
:10436000E3E7000000800010D0F800196FF30A01A5
:10437000C0F80019D0F80818C1F34101022905D18D
:10438000D0F8001941F00301C0F80019D0F8041862
:1043900041F48071C0F804180020704710B504463D
:1043A000C06840F04000E060204600F005F84FF49F
:1043B0008030A063002010BD0146002200BF501CC9
:1043C00002460F4B984201D903207047086900F05C
:1043D00000400028F3D00022086940F00100086185
:1043E00000BF501C0246064B984201D90320ECE75F
:1043F000086900F001000028F3D100BFE5E70000E4
:10440000400D030030B54D7801220C7802FA04F318
:10441000012DD0F83C4816D024EA0343C0F83C38BC
:10442000D0F81C380C78A24023EA0242C0F81C28BD
:10443000097800EB4110D0F8001B21F40041C0F8CE
:10444000001B002030BD9BB29C43C0F83C48D0F814
:104450001C380C78A24092B29343C0F81C380978FB
:1044600000EB4110D0F8001921F40041C0F8001908
:10447000E7E710B5D0F8041821F00201C0F80418DD
:104480000320FCF7EFF9002010BD10B5D0F8041898
:1044900041F00201C0F804180320FCF7E3F9002002
:1044A00010BD00002DE9F0470F4604460026DDF858
:1044B0002CA0DDF83C90DDF82080806B40F40010EB
:1044C000A063B9F1000F0BD1A06B20F40010A06322
:1044D000206840F040002060206840F080002060AC
:1044E0000025C4F8005ED4F80008C4F80008D4F829
:1044F000000840F00300C4F800081021204600F036
:1045000091FA204600F07EFAC4F81058C4F8145806
:10451000681EC4F81808C4F81C584FF09042FF23D6
:1045200010E000BF04EB4610D0F80019002902DAB1
:10453000C0F8002901E0C0F80059C0F81059C0F8CF
:104540000839761CB742EDD800200FE004EB40118B
:10455000D1F8006B002E02DAC1F8002B01E0C1F89F
:10456000005BC1F8105BC1F8083B401C8742EDD8E6
:10457000D4F8100820F48070C4F81008B8F1010FC6
:104580000AD11548C4F83008D4F830081349084354
:10459000C4F83008D4F83008A5616FF0804060613D
:1045A000B8F1000F03D1A06940F01000A061A0692C
:1045B0000B490843A061BAF1000F03D0A06940F095
:1045C0000800A061B9F1010F03D1A06905490843B2
:1045D000A0610020BDE8F087000180000300010019
:1045E00000383C8004000040816821F001018160B6
:1045F0000020704710B54C78444B0A7800EB42120B
:10460000012C30D0D2F8104B6FF31204C2F8104BCB
:104610000A7800EB4212D2F8104B1C40C2F8104B43
:104620004A690AB18A684A610A7800EB4212D2F8F4
:10463000103B43F40023C2F8103B0A7800EB42120F
:10464000D2F8103B8C68C4F312042343C2F8103B29
:10465000097800EB4110D0F8001B41F00441C0F88C
:10466000001B002010BD4C69002CD2F8104939D035
:104670006FF31204C2F810490A7800EB4212D2F824
:1046800010491C40C2F810494B698A68934200D90E
:104690004A610A7800EB4212D2F8103943F4002341
:1046A000C2F810390A7800EB4212D2F810394C697E
:1046B000C4F3120453EA0403C2F810394A693AB148
:1046C000D0F834280C780123A3401A43C0F83428CA
:1046D000097800EB4110D0F8001941F00441C0F80E
:1046E0000019BEE71C40C2F810490A7800EB4212DC
:1046F000D2F8103943F40023C2F810390A7800EBDD
:104700004212D2F810396FF31203D5E7FFFF07E02A
:104710000021C0F8101BD0F8101B41F40021C0F894
:10472000101BD0F8101B41F01801C0F8101BD0F876
:10473000101B41F0C041C0F8101B002070474B789F
:104740000A7800EB4212012B0BD0D2F8003B23F485
:104750000013C2F8003BCA78032A17D0022A15D0EA
:104760001DE0D2F8003923F40013C2F80039CA78EA
:10477000032A01D0022A12D1097800EB4110D0F8A7
:10478000001941F08051C0F8001908E0097800EBE9
:104790004110D0F8001B41F08051C0F8001B0020F0
:1047A00070474B780A7800EB4212012B14D0D2F8F4
:1047B000003B002B05DBD2F8003B23F08043C2F81E
:1047C000003B097800EB4110D0F8001B41F40011C8
:1047D000C0F8001B00207047D2F80039002B05DB21
:1047E000D2F8003923F08043C2F80039097800EB91
:1047F0004110D0F8001941F40011C0F80019E9E7A0
:1048000078B54E786FF060457A4C0B7800EB431327
:10481000012E30D0D3F8102B6FF31202C3F8102BF7
:104820000A7800EB4212D2F8103B2340C2F8103B4A
:104830004A69002A7ED08B681A44521EB2FBF3F2FA
:1048400092B20B7800EB4313D3F8104B05EAC24544
:104850002C43C3F8104B0B7800EB4313D3F8104BE9
:104860008D685543C5F312021443C3F8104BCA7840
:10487000012A75D0B2E04E6966B3D3F810696FF3C0
:104880001206C3F810690B7800EB4313D3F81069D4
:104890002640C3F810694C698B681C44641EB4FB45
:1048A000F3F305EAC3440B7800EB4313D3F8105934
:1048B0002C43C3F810490B7800EB4313D3F810498D
:1048C0004D69C5F312052C43C3F81049CB78012B71
:1048D00016D02AE0D3F810592540C3F810590B78A8
:1048E00000EB4313D3F8104944F40024C3F81049F3
:1048F0000B7800EB4313D3F810496FF312040FE069
:104900000B7800EB4313D3F8104924F0C044C3F8EC
:1049100010490B7800EB4313D3F8104944F00054CE
:10492000C3F81049CB78012B0ED04B69EBB1D0F80E
:10493000343800E02DE00D780124AC402343C0F86A
:104940003438CB78012B10D1D0F80838DB050B7840
:1049500000EB4313D3F8004903D444F0005402E0C1
:104960002CE044F08054C3F800490B7800EB43136B
:10497000D3F8004944F00444C3F80049CB78012B34
:1049800035D100928A8A93B20A78C96800F0C0F8DB
:104990002DE00A7800EB4212D2F8103B8C68C4F389
:1049A00012042343C2F8103B0A7800EB4212D2F8FB
:1049B000103B43F40023C2F8103B58E7D0F8082816
:1049C000D2050A7800EB4212D2F8003B02D443F041
:1049D000005301E043F08053C2F8003B097800EB3C
:1049E0004110D0F8001B41F00441C0F8001B00202A
:1049F00078BD0000FFFF07E0816841F001018160A0
:104A000000207047002110220261054A491C914292
:104A100001D9032070470369DB06F7D400207047F3
:104A2000400D03000022202343EA81110161054962
:104A3000521C8A4201D90320704703699B06F7D4B0
:104A400000207047400D0300406900F001007047EE
:104A5000D0F81818D0F81C08084080B27047D0F879
:104A60001818D0F81C080840000C7047D0F810380F
:104A7000D0F83428CA4002F0010243EAC21200EB27
:104A80004110D0F808091040704700EB4111D1F8EF
:104A9000081BD0F814080840704741698069084035
:104AA000704710B503460020D21C920803F58053CE
:104AB00003E01C6841F8044B401C9042F9D30846BF
:104AC00010BD10B5C26822F0C042C260012901D0F9
:104AD00021B107E0C16841F0005102E0C16841F036
:104AE0008041C1603220FBF7BDFE002010BDD0F830
:104AF000002822F4FE62C0F80028D0F800284FF405
:104B0000FE6303EA01110A43C0F800280020704741
:104B100010B50024DB1C9B0800EB023000F5805030
:104B200004E000BF51F8042B0260641C9C42F9D3DE
:104B3000002010BDFEE7000030B503460220002231
:104B40000A8072B60D4A9478ACB10D4C00205578AD
:104B500005F0030504EB85152D5C1D54401CC0B207
:104B60004028F4D3402008805078401C5070907842
:104B7000401E9070002062B630BD00003200002060
:104B80006C0300200A4601460148FEF783BE000080
:104B9000200A00200448D0F8180290F8500008B10C
:104BA0000020704701207047200A00207CB5044691
:104BB00000201D46164600290BD0491ECDE90041B4
:104BC000044B6A462946304600F0DCF8009A002182
:104BD00011707CBDB954000802E008C8121F08C15A
:104BE000002AFAD170477047002001E001C1121F6E
:104BF000002AFBD1704700002DE9FF5F82B0002141
:104C0000DDE90430020DDDF840B0034318D044F66E
:104C10001050A2F2FF3242431514119801281FD000
:104C2000A5EB0B00401C5FEA000A4FF000064E4F58
:104C3000DFF83891B046504615D5CAF1000413E0AC
:104C4000119801244AA3012801D16FEA0B010298AF
:104C5000119AC0E90031C0E9024206B000F08EB8F6
:104C6000CBF10000DFE704460021404A491842EB3F
:104C70000450CDE9001012E0E00707D032463B4671
:104C800040464946FBF7FAFB8046894632463B469A
:104C900010461946FBF7F2FB06460F466410002C3F
:104CA000EAD1DDE90401DDE90023BAF1000F06DAFB
:104CB000FBF7E4FB42464B46FBF7E0FB05E0FBF766
:104CC00052FC42464B46FBF74EFC04460E46002281
:104CD000284BFBF7CFFC03D84FF0FF30014607E02D
:104CE0000022254B20463146FBF719FBFBF7AAFCB7
:104CF000102409E0002C0ADB0A220023FBF760FAEB
:104D0000039B30321A55641E50EA0102F2D1641C32
:104D1000039AC4F111031444119A012A03D0012209
:104D200008430DD10AE0084304D000204FF0110BD6
:104D3000119072E7A3EB0B056D1E0DE05B4504DDE2
:104D40004FF0000205F1010504E003DA4FF0000224
:104D5000A5F10105002AECD002981199C0E90231B1
:104D6000C0E9004579E70000000014400000F03F72
:104D7000300000000000F0430000E03F30BCBDE820
:104D8000C09F00002DE9FF4F95B09B46894606461F
:104D900000250FE2252877D100242746F84A012173
:104DA000059400E0044316F8013F203B01FA03F0AC
:104DB0001042F7D130782A2811D06FF02F033078C5
:104DC000A0F13002092A16D8059A44F0020402EB39
:104DD000820203EB42021044761C0590EFE759F87B
:104DE000042B0592002A03DA504244F40054059043
:104DF00044F00204761C30782E2816D116F8010FE4
:104E000044F004042A280DD06FF02F023078A0F16E
:104E10003003092B09D807EB870302EB4303C718BC
:104E2000761CF3E759F8047B761C30786C280FD099
:104E300006DC4C2817D068280DD06A2814D104E06D
:104E4000742810D07A280FD10DE044F400140AE041
:104E500044F4801401E044F440147278824202D198
:104E600004F58014761C761C307866280BD013DC91
:104E7000582877D009DC002875D04528F6D0462878
:104E8000F4D047281AD19DE118E0632835D0642872
:104E900079D0652812D195E1702873D008DC672895
:104EA000F1D069286FD06E280DD06F2806D1B5E0FB
:104EB00073282CD0752875D0782874D05A46179945
:104EC00090476D1C75E1C4F30250022809D00328F5
:104ED0000DD0D9F8001004280DD00D6009F1040997
:104EE00067E1D9F80010EA17C1E90052F6E7D9F8EE
:104EF00000100D80F2E70D70F0E719F8041B8DF833
:104F0000001000208DF80100EA46012003E059F866
:104F100004AB4FF0FF3061074FF0000102D40DE009
:104F200008F101018846B9420FDA8045F8DB1AF82A
:104F300008100029F4D108E008F1010188468142F7
:104F4000FADB1AF808100029F6D105985B46A0EBA9
:104F5000080721463846179A00F097FA284400EBD4
:104F6000080507E04DE029E10DE01AF8010B5A466B
:104F700017999047B8F10108F7D25B4621463846A9
:104F8000179A13E142E00A220092C4F302524FF052
:104F9000000A022A08D059F804CB032A4FEAEC7120
:104FA0000AD00DE029E02AE009F1070121F007020B
:104FB000F2E802C1914609E00FFA8CFC4FEAEC716D
:104FC000042A03D14FFA8CFC4FEAEC71002907DA6E
:104FD0000A460021DCF1000C61EB02012D2202E007
:104FE000220504D52B228DF80420012203E0E207DC
:104FF00001D02022F7E7904659E00A2102E0102272
:105000000DE010214FF0000A00910BE010224FF04C
:10501000000A44F004040827009203E008224FF03D
:10502000000A0092C4F30252022A05D059F804CBB8
:105030000021032A08D009E009F1070121F0070245
:10504000F2E802C1914605E01FFA8CFC042A01D166
:105050000CF0FF0C4FF00008220728D5702806D06E
:10506000009B83F0100353EA0A0305D00EE04022B0
:105070008DF80420012208E05CEA010206D030220B
:105080008DF804208DF8050002229046009B83F0E5
:10509000080353EA0A030AD15CEA010201D162075C
:1050A00005D530228DF804204FF001087F1E5828C6
:1050B00004D034A003900EA802900DE036A0F9E7CA
:1050C00053466046009AFBF77BF884460398825C5F
:1050D0000298401E029002705CEA0100F0D1029832
:1050E00006A9081A00F1200A600702D524F48034CA
:1050F00000E00127574502DDA7EB0A0000E0002091
:1051000000EB0A01009005984144401A0590E00325
:1051100006D45B462146179A059800F0B6F9054477
:10512000002706E001A85A46C05D179990476D1CFC
:105130007F1C4745F6DBE0030CD55B462146179AFA
:10514000059800F0A2F9054404E030205A4617996A
:1051500090476D1C0099481E00900029F5DC08E07E
:10516000029802995A460078491C02911799904773
:105170006D1CBAF10001AAF1010AF1DC65E1000041
:10518000092801003031323334353637383961621D
:1051900063646566000000003031323334353637E1
:1051A00038394142434445460000000000F05BF9B5
:1051B0000544761C307800287FF4ECAD19B0284601
:1051C00000F04EB9620700D4062709F1070222F069
:1051D000070CFCE80223E14603F000485FEA080CF4
:1051E00002D00FF2702C0DE05FEA045C02D50FF2E2
:1051F000682C07E05FEAC47C02D00FF2602C01E06B
:10520000AFF2700C4FF0FF3823F00043CDF850C0E0
:1052100065280CD006DC452809D046281DD0472833
:105220003DD13DE0662818D067287ED138E00021C6
:10523000112F01DB112000E0781CCDE9000106A947
:105240000EA8FFF7D9FCDDE90F010E9A03910021AA
:10525000009207F1010A04914DE04FF000400097E1
:10526000CDE9011006A90EA8FFF7C6FCDDE90F0283
:1052700003920E9B11990022DDF80CA0009304927A
:1052800011B9791C00EB010AB7EB0A0004D4C0F194
:10529000FF3007F1010A0490AAEB0700019044E0F7
:1052A000012F00DA01270021112F01DD112000E07C
:1052B0003846CDE9000106A90EA8FFF79DFCDDE9FF
:1052C0000F010E9A0391002104910092BA46210722
:1052D0000CD40399514500DA8A46BAF1010F05DD75
:1052E000009AAAF10101515C302908D0B84202DAD3
:1052F00010F1040F06DA0121CDE9011015E0AAF141
:105300000101E9E7002805DC049901440491AAEBB6
:10531000000102E0411C514500DD8A460499401A13
:10532000401C01904FF000400290200704D40198E7
:10533000504501DBCDF8048000208DF84F00029825
:105340000DF14F07B0F1004F25D02B200E900298A1
:105350004FF0020800280CDA404202902D200E90F7
:1053600007E00A210298FAF7B4FF3031029007F8FB
:10537000011DB8F10001A8F10108F2DC0298002833
:10538000EFD1791E0E980870307800F0200040F0C0
:10539000450007F8020D12A8C01B00F10708149879
:1053A000007800B1012000EB0A01019801EBE071E7
:1053B00005984144401A401E0590E00306D45B4620
:1053C0002146179A059800F060F805441498007873
:1053D00018B15A46179990476D1CE00324D55B46D7
:1053E0002146179A059800F050F805441CE00498EF
:1053F000002807DBDDE90301884203DD0098405CFB
:10540000179901E0179930205A469047049805F102
:105410000105401C04900198401E019004D12E20EB
:105420005A46179990476D1CBAF10001AAF1010A7A
:10543000DDDC05E017F8010B5A46179990476D1C03
:10544000B8F10001A8F10108F4DC5B462146179A87
:105450000598ABE62D0000002B00000020000000A6
:1054600030BCBDE8C08F2DE9F041044600251E4642
:105470001746880404D405E039462020B0476D1C47
:10548000641EF9D52846BDE8F0812DE9F0410446B7
:1054900000251E469046C80301D5302700E020278E
:1054A000880404D505E041463846B0476D1C641EAB
:1054B000F9D52846BDE8F0814A68002A06D00A6876
:1054C000531C0B6010704868401E48607047000015
:1054D00000A07047535432355233393131422D4494
:1054E0004953434F204669726D776172652076316A
:1054F0002E312E31320000001046009A02F0B4BC6A
:1055000003488268521C82600020088070470000B7
:105510006800002010B5144640B1097801F03F0042
:10552000890905D0194604F0B6F805E0052010BD3C
:105530000122194604F09EF801202080002010BDB1
:1055400008B5022801D2052008BD08784A788DF8F0
:105550000020097800F03F00890903D0114604F0CB
:10556000B1F803E00122694604F09BF8002008BD71
:1055700010B5084C2068FAF798FE2168064C0246E0
:105580002046FAF799FE002802D1206000F006F8C4
:1055900010BD0000A8000020F07F0120064801682F
:1055A00021F00701491C01600448016881F3088863
:1055B00040688047FEE70000000001400000FF1F38
:1055C000054C2068FAF771FE024604482168FAF794
:1055D0003AFEFBF7C1FBFEE7A8000020F07F0120A8
:1055E0002DE9F8430024104FDFF840800126385D94
:1055F000402814D206FA04F006F056FE78B138F8C6
:105600001400050AFF2D00D26D1C385D694606F0B6
:10561000DFFF9DF8000040EA052028F81400641C14
:10562000182CE4DBBDE8F88378CB0008440C00209C
:1056300008B10020704704F057B910B5012005F0FB
:1056400013FBBDE8104004F05DB9FEB51E4608AD81
:1056500042EA012195E8980032462578CDE90054C8
:10566000029704F0BBF8FEBDFEB5044E089C002571
:105670008DE8700006F0EFF8FEBD000080B0140069
:10568000F0B5214C1F4E4FF0000C257818A306EB07
:10569000C5126746B9B1491E8C4516D290F800E094
:1056A0000CF1010C03EB1E1E0CF0FF0C9EF800E049
:1056B00002F801EB10F801EB0EF00F0E13F80EE0FC
:1056C00002F801EBE8E717700AE0017803EB11112B
:1056D00009781170007800F00F00185C5070977016
:1056E0002078401C00F00300207006EBC510F0BDD0
:1056F0003031323334353637383941424344454608
:1057000000000000502700204C01002008B10020BC
:10571000704704F0E9B800002DE9F84300F00F07E6
:105720008DF800201A801C460E4600090A46804665
:105730006B46394604F02AFC05469DF8000020809F
:10574000042D00D1162504F0CDFBF078000904F0FB
:10575000BAFB0A4C60614CF25030A061707800F0E6
:105760000F0004F095FBA083404604F091FBE0831A
:1057700084F820702846BDE8F883000064110020FA
:1057800010B504F0F3FFBDE8104004F0BBB87CB5E1
:105790000C460021A1724FF40C611546009101AB3B
:1057A000102204F10B0104F091F9A8B1042812D0E1
:1057B000002D10D004F10A00C21CC11D0090234628
:1057C000012004F0EDFFA17A042909D0072909D0AE
:1057D0000A2909D00B207CBDE17AC90608D0E7E789
:1057E000012102E0022100E0032121740428F2D10A
:1057F00018207CBD05F08CB838B501F003020546D1
:105800006B46C1F3810104F08BFB0446042805D0EC
:105810009DF8001045F0D000884200D0162404F016
:1058200061FB204638BD08B10020704704F05CB829
:10583000F0B50646C8781B4F93B000F00F0087F80C
:105840002000487815460C4600F00F0004F020FBBD
:10585000F883154B11A908AA0020CDE90621CDE94E
:1058600004036178E278A37801F00F0703900097B2
:10587000CDE90132C1F301138A092178701C04F0CB
:105880007BFA040008D19DF82000000928709DF8DB
:10589000200000F00F00687004F024FB13B02046D5
:1058A000F0BD00006411002080B0140010B505F0B8
:1058B00057F9BDE8104004F025B8000070B5044663
:1058C00088B000200D4608730146104605F068F9BF
:1058D000082C0BD0002001AB2A46002105F03EF831
:1058E00004469DF80400204302D00AE00820F2E7B5
:1058F0000120287306AB02AA014605F077F80400E0
:1059000003D0042C1CD054B117E09DF81800B8B196
:105910009DF808200DF109012846FAF794FCE87A71
:10592000000904F0D0FA074E70614CF25030B061BB
:10593000A87A000904F0ACFAB08308B0204670BD24
:105940001624FAE764110020401C05F039B905F06F
:10595000FBBC401C05F00ABD05F022BD05F042BDB0
:1059600005F05DBD05F077BD007805F086BD1FB57B
:1059700004466A4601A9012005F060FC00280ED10A
:105980009DF8001000290AD09DF804102170DDF860
:105990000510C4F80110DDF80910C4F8051004B0B2
:1059A00010BD05F08BBD05F0ABBD04F043BAFEB5EC
:1059B0000026DDE90845CDE90046AD01029505F078
:1059C0004AFF042801D0062800D11620FEBD08B1E8
:1059D0000020704703F088BF2DE9F04186B01F46D4
:1059E000DDE90D4602208DF80C00C3238DF80D3043
:1059F0008DF80E008DF80F10322102A8521ECDE94D
:105A000000018DF81020DDF830804823114A05216F
:105A100003A800F0BFFB050018D1BDF8080002285C
:105A200014D30C4908783870C00703D000203080A8
:105A30004D780BE0BDF80800A04200D80446641E73
:105A4000A2B232804046491CFAF7FDFB06B0284658
:105A5000BDE8F081911A00207FB50C4602208DF838
:105A60000800C0218DF809108DF80A00E0788DF843
:105A70000B00322103A8CDE900014823124A04217A
:105A800002A800F087FB05001AD1BDF80C0002281F
:105A900016D30D4908782070C007BDF80C0005D05A
:105AA000801E84F824004878607009E0401EC2B26D
:105AB00084F8242000206070201D491CFAF7C3FBE5
:105AC00004B0284670BD0000911A0020F0B585B0E2
:105AD00017000C464FF000053AD00026CDE90176BC
